{
  "_format": "hh-sol-artifact-1",
  "contractName": "NftMarkteplace",
  "sourceName": "contracts/NFTMarketplace.sol",
  "abi": [
    {
      "inputs": [],
      "stateMutability": "nonpayable",
      "type": "constructor"
    },
    {
      "anonymous": false,
      "inputs": [
        {
          "indexed": true,
          "internalType": "address",
          "name": "owner",
          "type": "address"
        },
        {
          "indexed": true,
          "internalType": "address",
          "name": "approved",
          "type": "address"
        },
        {
          "indexed": true,
          "internalType": "uint256",
          "name": "tokenId",
          "type": "uint256"
        }
      ],
      "name": "Approval",
      "type": "event"
    },
    {
      "anonymous": false,
      "inputs": [
        {
          "indexed": true,
          "internalType": "address",
          "name": "owner",
          "type": "address"
        },
        {
          "indexed": true,
          "internalType": "address",
          "name": "operator",
          "type": "address"
        },
        {
          "indexed": false,
          "internalType": "bool",
          "name": "approved",
          "type": "bool"
        }
      ],
      "name": "ApprovalForAll",
      "type": "event"
    },
    {
      "anonymous": false,
      "inputs": [
        {
          "indexed": false,
          "internalType": "uint256",
          "name": "_fromTokenId",
          "type": "uint256"
        },
        {
          "indexed": false,
          "internalType": "uint256",
          "name": "_toTokenId",
          "type": "uint256"
        }
      ],
      "name": "BatchMetadataUpdate",
      "type": "event"
    },
    {
      "anonymous": false,
      "inputs": [
        {
          "indexed": false,
          "internalType": "uint256",
          "name": "_tokenId",
          "type": "uint256"
        }
      ],
      "name": "MetadataUpdate",
      "type": "event"
    },
    {
      "anonymous": false,
      "inputs": [
        {
          "indexed": true,
          "internalType": "address",
          "name": "from",
          "type": "address"
        },
        {
          "indexed": true,
          "internalType": "address",
          "name": "to",
          "type": "address"
        },
        {
          "indexed": true,
          "internalType": "uint256",
          "name": "tokenId",
          "type": "uint256"
        }
      ],
      "name": "Transfer",
      "type": "event"
    },
    {
      "inputs": [
        {
          "internalType": "uint256",
          "name": "",
          "type": "uint256"
        }
      ],
      "name": "allNftsOnMarketplace",
      "outputs": [
        {
          "internalType": "uint256",
          "name": "tokenId",
          "type": "uint256"
        },
        {
          "internalType": "address payable",
          "name": "owner",
          "type": "address"
        },
        {
          "internalType": "address payable",
          "name": "seller",
          "type": "address"
        },
        {
          "internalType": "uint256",
          "name": "price",
          "type": "uint256"
        },
        {
          "internalType": "bool",
          "name": "currentlyListed",
          "type": "bool"
        }
      ],
      "stateMutability": "view",
      "type": "function"
    },
    {
      "inputs": [
        {
          "internalType": "address",
          "name": "to",
          "type": "address"
        },
        {
          "internalType": "uint256",
          "name": "tokenId",
          "type": "uint256"
        }
      ],
      "name": "approve",
      "outputs": [],
      "stateMutability": "nonpayable",
      "type": "function"
    },
    {
      "inputs": [
        {
          "internalType": "address",
          "name": "owner",
          "type": "address"
        }
      ],
      "name": "balanceOf",
      "outputs": [
        {
          "internalType": "uint256",
          "name": "",
          "type": "uint256"
        }
      ],
      "stateMutability": "view",
      "type": "function"
    },
    {
      "inputs": [
        {
          "internalType": "string",
          "name": "_uri",
          "type": "string"
        },
        {
          "internalType": "uint256",
          "name": "_price",
          "type": "uint256"
        }
      ],
      "name": "createToken",
      "outputs": [
        {
          "internalType": "uint256",
          "name": "",
          "type": "uint256"
        }
      ],
      "stateMutability": "payable",
      "type": "function"
    },
    {
      "inputs": [
        {
          "internalType": "uint256",
          "name": "_tokenId",
          "type": "uint256"
        }
      ],
      "name": "executeSale",
      "outputs": [],
      "stateMutability": "payable",
      "type": "function"
    },
    {
      "inputs": [],
      "name": "getAllMyNfts",
      "outputs": [
        {
          "components": [
            {
              "internalType": "uint256",
              "name": "tokenId",
              "type": "uint256"
            },
            {
              "internalType": "address payable",
              "name": "owner",
              "type": "address"
            },
            {
              "internalType": "address payable",
              "name": "seller",
              "type": "address"
            },
            {
              "internalType": "uint256",
              "name": "price",
              "type": "uint256"
            },
            {
              "internalType": "bool",
              "name": "currentlyListed",
              "type": "bool"
            }
          ],
          "internalType": "struct NftMarkteplace.ListedToken[]",
          "name": "",
          "type": "tuple[]"
        }
      ],
      "stateMutability": "view",
      "type": "function"
    },
    {
      "inputs": [],
      "name": "getAllNFTS",
      "outputs": [
        {
          "components": [
            {
              "internalType": "uint256",
              "name": "tokenId",
              "type": "uint256"
            },
            {
              "internalType": "address payable",
              "name": "owner",
              "type": "address"
            },
            {
              "internalType": "address payable",
              "name": "seller",
              "type": "address"
            },
            {
              "internalType": "uint256",
              "name": "price",
              "type": "uint256"
            },
            {
              "internalType": "bool",
              "name": "currentlyListed",
              "type": "bool"
            }
          ],
          "internalType": "struct NftMarkteplace.ListedToken[]",
          "name": "",
          "type": "tuple[]"
        }
      ],
      "stateMutability": "view",
      "type": "function"
    },
    {
      "inputs": [],
      "name": "getAllNFTsByStruct",
      "outputs": [
        {
          "components": [
            {
              "internalType": "uint256",
              "name": "tokenId",
              "type": "uint256"
            },
            {
              "internalType": "address payable",
              "name": "owner",
              "type": "address"
            },
            {
              "internalType": "address payable",
              "name": "seller",
              "type": "address"
            },
            {
              "internalType": "uint256",
              "name": "price",
              "type": "uint256"
            },
            {
              "internalType": "bool",
              "name": "currentlyListed",
              "type": "bool"
            }
          ],
          "internalType": "struct NftMarkteplace.ListedToken[]",
          "name": "",
          "type": "tuple[]"
        }
      ],
      "stateMutability": "view",
      "type": "function"
    },
    {
      "inputs": [
        {
          "internalType": "uint256",
          "name": "tokenId",
          "type": "uint256"
        }
      ],
      "name": "getApproved",
      "outputs": [
        {
          "internalType": "address",
          "name": "",
          "type": "address"
        }
      ],
      "stateMutability": "view",
      "type": "function"
    },
    {
      "inputs": [],
      "name": "getCurrentToken",
      "outputs": [
        {
          "internalType": "uint256",
          "name": "",
          "type": "uint256"
        }
      ],
      "stateMutability": "view",
      "type": "function"
    },
    {
      "inputs": [],
      "name": "getLatestListedToken",
      "outputs": [
        {
          "components": [
            {
              "internalType": "uint256",
              "name": "tokenId",
              "type": "uint256"
            },
            {
              "internalType": "address payable",
              "name": "owner",
              "type": "address"
            },
            {
              "internalType": "address payable",
              "name": "seller",
              "type": "address"
            },
            {
              "internalType": "uint256",
              "name": "price",
              "type": "uint256"
            },
            {
              "internalType": "bool",
              "name": "currentlyListed",
              "type": "bool"
            }
          ],
          "internalType": "struct NftMarkteplace.ListedToken",
          "name": "",
          "type": "tuple"
        }
      ],
      "stateMutability": "view",
      "type": "function"
    },
    {
      "inputs": [
        {
          "internalType": "uint256",
          "name": "_id",
          "type": "uint256"
        }
      ],
      "name": "getLatestListedTokenById",
      "outputs": [
        {
          "components": [
            {
              "internalType": "uint256",
              "name": "tokenId",
              "type": "uint256"
            },
            {
              "internalType": "address payable",
              "name": "owner",
              "type": "address"
            },
            {
              "internalType": "address payable",
              "name": "seller",
              "type": "address"
            },
            {
              "internalType": "uint256",
              "name": "price",
              "type": "uint256"
            },
            {
              "internalType": "bool",
              "name": "currentlyListed",
              "type": "bool"
            }
          ],
          "internalType": "struct NftMarkteplace.ListedToken",
          "name": "",
          "type": "tuple"
        }
      ],
      "stateMutability": "view",
      "type": "function"
    },
    {
      "inputs": [],
      "name": "getListPrice",
      "outputs": [
        {
          "internalType": "uint256",
          "name": "",
          "type": "uint256"
        }
      ],
      "stateMutability": "view",
      "type": "function"
    },
    {
      "inputs": [
        {
          "internalType": "address",
          "name": "owner",
          "type": "address"
        },
        {
          "internalType": "address",
          "name": "operator",
          "type": "address"
        }
      ],
      "name": "isApprovedForAll",
      "outputs": [
        {
          "internalType": "bool",
          "name": "",
          "type": "bool"
        }
      ],
      "stateMutability": "view",
      "type": "function"
    },
    {
      "inputs": [],
      "name": "name",
      "outputs": [
        {
          "internalType": "string",
          "name": "",
          "type": "string"
        }
      ],
      "stateMutability": "view",
      "type": "function"
    },
    {
      "inputs": [],
      "name": "owner",
      "outputs": [
        {
          "internalType": "address",
          "name": "",
          "type": "address"
        }
      ],
      "stateMutability": "view",
      "type": "function"
    },
    {
      "inputs": [
        {
          "internalType": "uint256",
          "name": "tokenId",
          "type": "uint256"
        }
      ],
      "name": "ownerOf",
      "outputs": [
        {
          "internalType": "address",
          "name": "",
          "type": "address"
        }
      ],
      "stateMutability": "view",
      "type": "function"
    },
    {
      "inputs": [
        {
          "internalType": "address",
          "name": "from",
          "type": "address"
        },
        {
          "internalType": "address",
          "name": "to",
          "type": "address"
        },
        {
          "internalType": "uint256",
          "name": "tokenId",
          "type": "uint256"
        }
      ],
      "name": "safeTransferFrom",
      "outputs": [],
      "stateMutability": "nonpayable",
      "type": "function"
    },
    {
      "inputs": [
        {
          "internalType": "address",
          "name": "from",
          "type": "address"
        },
        {
          "internalType": "address",
          "name": "to",
          "type": "address"
        },
        {
          "internalType": "uint256",
          "name": "tokenId",
          "type": "uint256"
        },
        {
          "internalType": "bytes",
          "name": "data",
          "type": "bytes"
        }
      ],
      "name": "safeTransferFrom",
      "outputs": [],
      "stateMutability": "nonpayable",
      "type": "function"
    },
    {
      "inputs": [
        {
          "internalType": "address",
          "name": "operator",
          "type": "address"
        },
        {
          "internalType": "bool",
          "name": "approved",
          "type": "bool"
        }
      ],
      "name": "setApprovalForAll",
      "outputs": [],
      "stateMutability": "nonpayable",
      "type": "function"
    },
    {
      "inputs": [
        {
          "internalType": "bytes4",
          "name": "interfaceId",
          "type": "bytes4"
        }
      ],
      "name": "supportsInterface",
      "outputs": [
        {
          "internalType": "bool",
          "name": "",
          "type": "bool"
        }
      ],
      "stateMutability": "view",
      "type": "function"
    },
    {
      "inputs": [],
      "name": "symbol",
      "outputs": [
        {
          "internalType": "string",
          "name": "",
          "type": "string"
        }
      ],
      "stateMutability": "view",
      "type": "function"
    },
    {
      "inputs": [
        {
          "internalType": "uint256",
          "name": "tokenId",
          "type": "uint256"
        }
      ],
      "name": "tokenURI",
      "outputs": [
        {
          "internalType": "string",
          "name": "",
          "type": "string"
        }
      ],
      "stateMutability": "view",
      "type": "function"
    },
    {
      "inputs": [
        {
          "internalType": "address",
          "name": "from",
          "type": "address"
        },
        {
          "internalType": "address",
          "name": "to",
          "type": "address"
        },
        {
          "internalType": "uint256",
          "name": "tokenId",
          "type": "uint256"
        }
      ],
      "name": "transferFrom",
      "outputs": [],
      "stateMutability": "nonpayable",
      "type": "function"
    },
    {
      "inputs": [
        {
          "internalType": "uint256",
          "name": "_listPrice",
          "type": "uint256"
        }
      ],
      "name": "updateListPrice",
      "outputs": [],
      "stateMutability": "payable",
      "type": "function"
    }
  ],
  "bytecode": "0x6080604052662386f26fc100006008553480156200001c57600080fd5b506040518060400160405280600e81526020017f4e46544d61726b6574706c6163650000000000000000000000000000000000008152506040518060400160405280600481526020017f4e46544d0000000000000000000000000000000000000000000000000000000081525081600090816200009a919062000370565b508060019081620000ac919062000370565b50505033600760006101000a81548173ffffffffffffffffffffffffffffffffffffffff021916908373ffffffffffffffffffffffffffffffffffffffff16021790555062000457565b600081519050919050565b7f4e487b7100000000000000000000000000000000000000000000000000000000600052604160045260246000fd5b7f4e487b7100000000000000000000000000000000000000000000000000000000600052602260045260246000fd5b600060028204905060018216806200017857607f821691505b6020821081036200018e576200018d62000130565b5b50919050565b60008190508160005260206000209050919050565b60006020601f8301049050919050565b600082821b905092915050565b600060088302620001f87fffffffffffffffffffffffffffffffffffffffffffffffffffffffffffffffff82620001b9565b620002048683620001b9565b95508019841693508086168417925050509392505050565b6000819050919050565b6000819050919050565b6000620002516200024b62000245846200021c565b62000226565b6200021c565b9050919050565b6000819050919050565b6200026d8362000230565b620002856200027c8262000258565b848454620001c6565b825550505050565b600090565b6200029c6200028d565b620002a981848462000262565b505050565b5b81811015620002d157620002c560008262000292565b600181019050620002af565b5050565b601f8211156200032057620002ea8162000194565b620002f584620001a9565b8101602085101562000305578190505b6200031d6200031485620001a9565b830182620002ae565b50505b505050565b600082821c905092915050565b6000620003456000198460080262000325565b1980831691505092915050565b600062000360838362000332565b9150826002028217905092915050565b6200037b82620000f6565b67ffffffffffffffff81111562000397576200039662000101565b5b620003a382546200015f565b620003b0828285620002d5565b600060209050601f831160018114620003e85760008415620003d3578287015190505b620003df858262000352565b8655506200044f565b601f198416620003f88662000194565b60005b828110156200042257848901518255600182019150602085019450602081019050620003fb565b868310156200044257848901516200043e601f89168262000332565b8355505b6001600288020188555050505b505050505050565b6141b380620004676000396000f3fe6080604052600436106101665760003560e01c80637f466034116100d1578063c322579c1161008a578063d2aae60111610064578063d2aae60114610551578063e985e9c51461057c578063ef2d1746146105b9578063f06c5be7146105e457610166565b8063c322579c146104cd578063c87b56dd146104e9578063cf4bb2eb1461052657610166565b80637f466034146103cc5780638da5cb5b1461040957806395d89b41146104345780639b1225c41461045f578063a22cb4651461047b578063b88d4fde146104a457610166565b806323cf49f61161012357806323cf49f61461028d57806342842e0e146102ce5780636352211e146102f757806368f1945f1461033457806370a082311461035f57806372b3b6201461039c57610166565b806301d7ccbc1461016b57806301ffc9a71461019657806306fdde03146101d3578063081812fc146101fe578063095ea7b31461023b57806323b872dd14610264575b600080fd5b34801561017757600080fd5b5061018061060f565b60405161018d9190612be0565b60405180910390f35b3480156101a257600080fd5b506101bd60048036038101906101b89190612c67565b61071e565b6040516101ca9190612ca3565b60405180910390f35b3480156101df57600080fd5b506101e861077f565b6040516101f59190612d4e565b60405180910390f35b34801561020a57600080fd5b5061022560048036038101906102209190612d9c565b610811565b6040516102329190612dea565b60405180910390f35b34801561024757600080fd5b50610262600480360381019061025d9190612e31565b610857565b005b34801561027057600080fd5b5061028b60048036038101906102869190612e71565b61096e565b005b34801561029957600080fd5b506102b460048036038101906102af9190612d9c565b6109ce565b6040516102c5959493929190612ee2565b60405180910390f35b3480156102da57600080fd5b506102f560048036038101906102f09190612e71565b610a61565b005b34801561030357600080fd5b5061031e60048036038101906103199190612d9c565b610a81565b60405161032b9190612dea565b60405180910390f35b34801561034057600080fd5b50610349610b07565b6040516103569190612f35565b60405180910390f35b34801561036b57600080fd5b5061038660048036038101906103819190612f50565b610b11565b6040516103939190612f35565b60405180910390f35b6103b660048036038101906103b191906130b2565b610bc8565b6040516103c39190612f35565b60405180910390f35b3480156103d857600080fd5b506103f360048036038101906103ee9190612d9c565b610c91565b6040516104009190612be0565b60405180910390f35b34801561041557600080fd5b5061041e610d99565b60405161042b9190612dea565b60405180910390f35b34801561044057600080fd5b50610449610dbf565b6040516104569190612d4e565b60405180910390f35b61047960048036038101906104749190612d9c565b610e51565b005b34801561048757600080fd5b506104a2600480360381019061049d919061313a565b611039565b005b3480156104b057600080fd5b506104cb60048036038101906104c6919061321b565b61104f565b005b6104e760048036038101906104e29190612d9c565b6110b1565b005b3480156104f557600080fd5b50610510600480360381019061050b9190612d9c565b61114b565b60405161051d9190612d4e565b60405180910390f35b34801561053257600080fd5b5061053b61125d565b60405161054891906133b5565b60405180910390f35b34801561055d57600080fd5b50610566611397565b60405161057391906133b5565b60405180910390f35b34801561058857600080fd5b506105a3600480360381019061059e91906133d7565b611566565b6040516105b09190612ca3565b60405180910390f35b3480156105c557600080fd5b506105ce6115fa565b6040516105db9190612f35565b60405180910390f35b3480156105f057600080fd5b506105f961160b565b60405161060691906133b5565b60405180910390f35b610617612aa6565b600b6000610625600a611844565b81526020019081526020016000206040518060a0016040529081600082015481526020016001820160009054906101000a900473ffffffffffffffffffffffffffffffffffffffff1673ffffffffffffffffffffffffffffffffffffffff1673ffffffffffffffffffffffffffffffffffffffff1681526020016002820160009054906101000a900473ffffffffffffffffffffffffffffffffffffffff1673ffffffffffffffffffffffffffffffffffffffff1673ffffffffffffffffffffffffffffffffffffffff168152602001600382015481526020016004820160009054906101000a900460ff161515151581525050905090565b6000634906490660e01b7bffffffffffffffffffffffffffffffffffffffffffffffffffffffff1916827bffffffffffffffffffffffffffffffffffffffffffffffffffffffff19161480610778575061077782611852565b5b9050919050565b60606000805461078e90613446565b80601f01602080910402602001604051908101604052809291908181526020018280546107ba90613446565b80156108075780601f106107dc57610100808354040283529160200191610807565b820191906000526020600020905b8154815290600101906020018083116107ea57829003601f168201915b5050505050905090565b600061081c82611934565b6004600083815260200190815260200160002060009054906101000a900473ffffffffffffffffffffffffffffffffffffffff169050919050565b600061086282610a81565b90508073ffffffffffffffffffffffffffffffffffffffff168373ffffffffffffffffffffffffffffffffffffffff16036108d2576040517f08c379a00000000000000000000000000000000000000000000000000000000081526004016108c9906134e9565b60405180910390fd5b8073ffffffffffffffffffffffffffffffffffffffff166108f161197f565b73ffffffffffffffffffffffffffffffffffffffff161480610920575061091f8161091a61197f565b611566565b5b61095f576040517f08c379a00000000000000000000000000000000000000000000000000000000081526004016109569061357b565b60405180910390fd5b6109698383611987565b505050565b61097f61097961197f565b82611a40565b6109be576040517f08c379a00000000000000000000000000000000000000000000000000000000081526004016109b59061360d565b60405180910390fd5b6109c9838383611ad5565b505050565b600c81815481106109de57600080fd5b90600052602060002090600502016000915090508060000154908060010160009054906101000a900473ffffffffffffffffffffffffffffffffffffffff16908060020160009054906101000a900473ffffffffffffffffffffffffffffffffffffffff16908060030154908060040160009054906101000a900460ff16905085565b610a7c8383836040518060200160405280600081525061104f565b505050565b600080610a8d83611dce565b9050600073ffffffffffffffffffffffffffffffffffffffff168173ffffffffffffffffffffffffffffffffffffffff1603610afe576040517f08c379a0000000000000000000000000000000000000000000000000000000008152600401610af590613679565b60405180910390fd5b80915050919050565b6000600854905090565b60008073ffffffffffffffffffffffffffffffffffffffff168273ffffffffffffffffffffffffffffffffffffffff1603610b81576040517f08c379a0000000000000000000000000000000000000000000000000000000008152600401610b789061370b565b60405180910390fd5b600360008373ffffffffffffffffffffffffffffffffffffffff1673ffffffffffffffffffffffffffffffffffffffff168152602001908152602001600020549050919050565b60006008543414610c0e576040517f08c379a0000000000000000000000000000000000000000000000000000000008152600401610c0590613777565b60405180910390fd5b60008211610c51576040517f08c379a0000000000000000000000000000000000000000000000000000000008152600401610c4890613809565b60405180910390fd5b610c5b600a611e0b565b6000610c67600a611844565b9050610c733382611e21565b610c7d8185611e3f565b610c878184611ee3565b8091505092915050565b610c99612aa6565b600b60008381526020019081526020016000206040518060a0016040529081600082015481526020016001820160009054906101000a900473ffffffffffffffffffffffffffffffffffffffff1673ffffffffffffffffffffffffffffffffffffffff1673ffffffffffffffffffffffffffffffffffffffff1681526020016002820160009054906101000a900473ffffffffffffffffffffffffffffffffffffffff1673ffffffffffffffffffffffffffffffffffffffff1673ffffffffffffffffffffffffffffffffffffffff168152602001600382015481526020016004820160009054906101000a900460ff1615151515815250509050919050565b600760009054906101000a900473ffffffffffffffffffffffffffffffffffffffff1681565b606060018054610dce90613446565b80601f0160208091040260200160405190810160405280929190818152602001828054610dfa90613446565b8015610e475780601f10610e1c57610100808354040283529160200191610e47565b820191906000526020600020905b815481529060010190602001808311610e2a57829003601f168201915b5050505050905090565b6000600b6000838152602001908152602001600020600301549050803414610eae576040517f08c379a0000000000000000000000000000000000000000000000000000000008152600401610ea59061389b565b60405180910390fd5b6000600b600084815260200190815260200160002060020160009054906101000a900473ffffffffffffffffffffffffffffffffffffffff16905033600b600085815260200190815260200160002060020160006101000a81548173ffffffffffffffffffffffffffffffffffffffff021916908373ffffffffffffffffffffffffffffffffffffffff1602179055506001600b600085815260200190815260200160002060040160006101000a81548160ff021916908315150217905550610f78303385611ad5565b610f823084610857565b600760009054906101000a900473ffffffffffffffffffffffffffffffffffffffff1673ffffffffffffffffffffffffffffffffffffffff166108fc6008549081150290604051600060405180830381858888f19350505050158015610fec573d6000803e3d6000fd5b508073ffffffffffffffffffffffffffffffffffffffff166108fc349081150290604051600060405180830381858888f19350505050158015611033573d6000803e3d6000fd5b50505050565b61104b61104461197f565b8383612165565b5050565b61106061105a61197f565b83611a40565b61109f576040517f08c379a00000000000000000000000000000000000000000000000000000000081526004016110969061360d565b60405180910390fd5b6110ab848484846122d1565b50505050565b3373ffffffffffffffffffffffffffffffffffffffff16600760009054906101000a900473ffffffffffffffffffffffffffffffffffffffff1673ffffffffffffffffffffffffffffffffffffffff1614611141576040517f08c379a000000000000000000000000000000000000000000000000000000000815260040161113890613907565b60405180910390fd5b8060088190555050565b606061115682611934565b600060066000848152602001908152602001600020805461117690613446565b80601f01602080910402602001604051908101604052809291908181526020018280546111a290613446565b80156111ef5780601f106111c4576101008083540402835291602001916111ef565b820191906000526020600020905b8154815290600101906020018083116111d257829003601f168201915b50505050509050600061120061232d565b90506000815103611215578192505050611258565b60008251111561124a578082604051602001611232929190613963565b60405160208183030381529060405292505050611258565b61125384612344565b925050505b919050565b6060600c805480602002602001604051908101604052809291908181526020016000905b8282101561138e57838290600052602060002090600502016040518060a0016040529081600082015481526020016001820160009054906101000a900473ffffffffffffffffffffffffffffffffffffffff1673ffffffffffffffffffffffffffffffffffffffff1673ffffffffffffffffffffffffffffffffffffffff1681526020016002820160009054906101000a900473ffffffffffffffffffffffffffffffffffffffff1673ffffffffffffffffffffffffffffffffffffffff1673ffffffffffffffffffffffffffffffffffffffff168152602001600382015481526020016004820160009054906101000a900460ff16151515158152505081526020019060010190611281565b50505050905090565b606060006113a5600a611844565b905060008167ffffffffffffffff8111156113c3576113c2612f87565b5b6040519080825280602002602001820160405280156113fc57816020015b6113e9612aa6565b8152602001906001900390816113e15790505b5090506000805b8381101561155c57600060018261141a91906139b6565b90506000600b60008381526020019081526020016000209050806040518060a0016040529081600082015481526020016001820160009054906101000a900473ffffffffffffffffffffffffffffffffffffffff1673ffffffffffffffffffffffffffffffffffffffff1673ffffffffffffffffffffffffffffffffffffffff1681526020016002820160009054906101000a900473ffffffffffffffffffffffffffffffffffffffff1673ffffffffffffffffffffffffffffffffffffffff1673ffffffffffffffffffffffffffffffffffffffff168152602001600382015481526020016004820160009054906101000a900460ff16151515158152505085858151811061152d5761152c6139ea565b5b602002602001018190525060018461154591906139b6565b93505050808061155490613a19565b915050611403565b5081935050505090565b6000600560008473ffffffffffffffffffffffffffffffffffffffff1673ffffffffffffffffffffffffffffffffffffffff16815260200190815260200160002060008373ffffffffffffffffffffffffffffffffffffffff1673ffffffffffffffffffffffffffffffffffffffff16815260200190815260200160002060009054906101000a900460ff16905092915050565b6000611606600a611844565b905090565b60606000600c8054905067ffffffffffffffff81111561162e5761162d612f87565b5b60405190808252806020026020018201604052801561166757816020015b611654612aa6565b81526020019060019003908161164c5790505b5090506000805b600c8054905081101561183b576000600c8281548110611691576116906139ea565b5b90600052602060002090600502016040518060a0016040529081600082015481526020016001820160009054906101000a900473ffffffffffffffffffffffffffffffffffffffff1673ffffffffffffffffffffffffffffffffffffffff1673ffffffffffffffffffffffffffffffffffffffff1681526020016002820160009054906101000a900473ffffffffffffffffffffffffffffffffffffffff1673ffffffffffffffffffffffffffffffffffffffff1673ffffffffffffffffffffffffffffffffffffffff168152602001600382015481526020016004820160009054906101000a900460ff16151515158152505090503373ffffffffffffffffffffffffffffffffffffffff16816040015173ffffffffffffffffffffffffffffffffffffffff1614806117f457503373ffffffffffffffffffffffffffffffffffffffff16816020015173ffffffffffffffffffffffffffffffffffffffff16145b15611827578084848151811061180d5761180c6139ea565b5b6020026020010181905250828061182390613a19565b9350505b50808061183390613a19565b91505061166e565b50819250505090565b600081600001549050919050565b60007f80ac58cd000000000000000000000000000000000000000000000000000000007bffffffffffffffffffffffffffffffffffffffffffffffffffffffff1916827bffffffffffffffffffffffffffffffffffffffffffffffffffffffff1916148061191d57507f5b5e139f000000000000000000000000000000000000000000000000000000007bffffffffffffffffffffffffffffffffffffffffffffffffffffffff1916827bffffffffffffffffffffffffffffffffffffffffffffffffffffffff1916145b8061192d575061192c826123ac565b5b9050919050565b61193d81612416565b61197c576040517f08c379a000000000000000000000000000000000000000000000000000000000815260040161197390613679565b60405180910390fd5b50565b600033905090565b816004600083815260200190815260200160002060006101000a81548173ffffffffffffffffffffffffffffffffffffffff021916908373ffffffffffffffffffffffffffffffffffffffff160217905550808273ffffffffffffffffffffffffffffffffffffffff166119fa83610a81565b73ffffffffffffffffffffffffffffffffffffffff167f8c5be1e5ebec7d5bd14f71427d1e84f3dd0314c0f7b2291e5b200ac8c7c3b92560405160405180910390a45050565b600080611a4c83610a81565b90508073ffffffffffffffffffffffffffffffffffffffff168473ffffffffffffffffffffffffffffffffffffffff161480611a8e5750611a8d8185611566565b5b80611acc57508373ffffffffffffffffffffffffffffffffffffffff16611ab484610811565b73ffffffffffffffffffffffffffffffffffffffff16145b91505092915050565b8273ffffffffffffffffffffffffffffffffffffffff16611af582610a81565b73ffffffffffffffffffffffffffffffffffffffff1614611b4b576040517f08c379a0000000000000000000000000000000000000000000000000000000008152600401611b4290613ad3565b60405180910390fd5b600073ffffffffffffffffffffffffffffffffffffffff168273ffffffffffffffffffffffffffffffffffffffff1603611bba576040517f08c379a0000000000000000000000000000000000000000000000000000000008152600401611bb190613b65565b60405180910390fd5b611bc78383836001612457565b8273ffffffffffffffffffffffffffffffffffffffff16611be782610a81565b73ffffffffffffffffffffffffffffffffffffffff1614611c3d576040517f08c379a0000000000000000000000000000000000000000000000000000000008152600401611c3490613ad3565b60405180910390fd5b6004600082815260200190815260200160002060006101000a81549073ffffffffffffffffffffffffffffffffffffffff02191690556001600360008573ffffffffffffffffffffffffffffffffffffffff1673ffffffffffffffffffffffffffffffffffffffff168152602001908152602001600020600082825403925050819055506001600360008473ffffffffffffffffffffffffffffffffffffffff1673ffffffffffffffffffffffffffffffffffffffff16815260200190815260200160002060008282540192505081905550816002600083815260200190815260200160002060006101000a81548173ffffffffffffffffffffffffffffffffffffffff021916908373ffffffffffffffffffffffffffffffffffffffff160217905550808273ffffffffffffffffffffffffffffffffffffffff168473ffffffffffffffffffffffffffffffffffffffff167fddf252ad1be2c89b69c2b068fc378daa952ba7f163c4a11628f55a4df523b3ef60405160405180910390a4611dc9838383600161245d565b505050565b60006002600083815260200190815260200160002060009054906101000a900473ffffffffffffffffffffffffffffffffffffffff169050919050565b6001816000016000828254019250508190555050565b611e3b828260405180602001604052806000815250612463565b5050565b611e4882612416565b611e87576040517f08c379a0000000000000000000000000000000000000000000000000000000008152600401611e7e90613bf7565b60405180910390fd5b80600660008481526020019081526020016000209081611ea79190613dc3565b507ff8e1a15aba9398e019f0b49df1a4fde98ee17ae345cb5f6b5e2c27f5033e8ce782604051611ed79190612f35565b60405180910390a15050565b6040518060a001604052808381526020013073ffffffffffffffffffffffffffffffffffffffff1681526020013373ffffffffffffffffffffffffffffffffffffffff16815260200182815260200160011515815250600b60008481526020019081526020016000206000820151816000015560208201518160010160006101000a81548173ffffffffffffffffffffffffffffffffffffffff021916908373ffffffffffffffffffffffffffffffffffffffff16021790555060408201518160020160006101000a81548173ffffffffffffffffffffffffffffffffffffffff021916908373ffffffffffffffffffffffffffffffffffffffff1602179055506060820151816003015560808201518160040160006101000a81548160ff02191690831515021790555090505061201c333084611ad5565b600c6040518060a001604052808481526020013073ffffffffffffffffffffffffffffffffffffffff1681526020013373ffffffffffffffffffffffffffffffffffffffff1681526020018381526020016001151581525090806001815401808255809150506001900390600052602060002090600502016000909190919091506000820151816000015560208201518160010160006101000a81548173ffffffffffffffffffffffffffffffffffffffff021916908373ffffffffffffffffffffffffffffffffffffffff16021790555060408201518160020160006101000a81548173ffffffffffffffffffffffffffffffffffffffff021916908373ffffffffffffffffffffffffffffffffffffffff1602179055506060820151816003015560808201518160040160006101000a81548160ff02191690831515021790555050505050565b8173ffffffffffffffffffffffffffffffffffffffff168373ffffffffffffffffffffffffffffffffffffffff16036121d3576040517f08c379a00000000000000000000000000000000000000000000000000000000081526004016121ca90613ee1565b60405180910390fd5b80600560008573ffffffffffffffffffffffffffffffffffffffff1673ffffffffffffffffffffffffffffffffffffffff16815260200190815260200160002060008473ffffffffffffffffffffffffffffffffffffffff1673ffffffffffffffffffffffffffffffffffffffff16815260200190815260200160002060006101000a81548160ff0219169083151502179055508173ffffffffffffffffffffffffffffffffffffffff168373ffffffffffffffffffffffffffffffffffffffff167f17307eab39ab6107e8899845ad3d59bd9653f200f220920489ca2b5937696c31836040516122c49190612ca3565b60405180910390a3505050565b6122dc848484611ad5565b6122e8848484846124be565b612327576040517f08c379a000000000000000000000000000000000000000000000000000000000815260040161231e90613f73565b60405180910390fd5b50505050565b606060405180602001604052806000815250905090565b606061234f82611934565b600061235961232d565b9050600081511161237957604051806020016040528060008152506123a4565b8061238384612645565b604051602001612394929190613963565b6040516020818303038152906040525b915050919050565b60007f01ffc9a7000000000000000000000000000000000000000000000000000000007bffffffffffffffffffffffffffffffffffffffffffffffffffffffff1916827bffffffffffffffffffffffffffffffffffffffffffffffffffffffff1916149050919050565b60008073ffffffffffffffffffffffffffffffffffffffff1661243883611dce565b73ffffffffffffffffffffffffffffffffffffffff1614159050919050565b50505050565b50505050565b61246d8383612713565b61247a60008484846124be565b6124b9576040517f08c379a00000000000000000000000000000000000000000000000000000000081526004016124b090613f73565b60405180910390fd5b505050565b60006124df8473ffffffffffffffffffffffffffffffffffffffff16612930565b15612638578373ffffffffffffffffffffffffffffffffffffffff1663150b7a0261250861197f565b8786866040518563ffffffff1660e01b815260040161252a9493929190613fe8565b6020604051808303816000875af192505050801561256657506040513d601f19601f820116820180604052508101906125639190614049565b60015b6125e8573d8060008114612596576040519150601f19603f3d011682016040523d82523d6000602084013e61259b565b606091505b5060008151036125e0576040517f08c379a00000000000000000000000000000000000000000000000000000000081526004016125d790613f73565b60405180910390fd5b805181602001fd5b63150b7a0260e01b7bffffffffffffffffffffffffffffffffffffffffffffffffffffffff1916817bffffffffffffffffffffffffffffffffffffffffffffffffffffffff19161491505061263d565b600190505b949350505050565b60606000600161265484612953565b01905060008167ffffffffffffffff81111561267357612672612f87565b5b6040519080825280601f01601f1916602001820160405280156126a55781602001600182028036833780820191505090505b509050600082602001820190505b600115612708578080600190039150507f3031323334353637383961626364656600000000000000000000000000000000600a86061a8153600a85816126fc576126fb614076565b5b049450600085036126b3575b819350505050919050565b600073ffffffffffffffffffffffffffffffffffffffff168273ffffffffffffffffffffffffffffffffffffffff1603612782576040517f08c379a0000000000000000000000000000000000000000000000000000000008152600401612779906140f1565b60405180910390fd5b61278b81612416565b156127cb576040517f08c379a00000000000000000000000000000000000000000000000000000000081526004016127c29061415d565b60405180910390fd5b6127d9600083836001612457565b6127e281612416565b15612822576040517f08c379a00000000000000000000000000000000000000000000000000000000081526004016128199061415d565b60405180910390fd5b6001600360008473ffffffffffffffffffffffffffffffffffffffff1673ffffffffffffffffffffffffffffffffffffffff16815260200190815260200160002060008282540192505081905550816002600083815260200190815260200160002060006101000a81548173ffffffffffffffffffffffffffffffffffffffff021916908373ffffffffffffffffffffffffffffffffffffffff160217905550808273ffffffffffffffffffffffffffffffffffffffff16600073ffffffffffffffffffffffffffffffffffffffff167fddf252ad1be2c89b69c2b068fc378daa952ba7f163c4a11628f55a4df523b3ef60405160405180910390a461292c60008383600161245d565b5050565b6000808273ffffffffffffffffffffffffffffffffffffffff163b119050919050565b600080600090507a184f03e93ff9f4daa797ed6e38ed64bf6a1f01000000000000000083106129b1577a184f03e93ff9f4daa797ed6e38ed64bf6a1f01000000000000000083816129a7576129a6614076565b5b0492506040810190505b6d04ee2d6d415b85acef810000000083106129ee576d04ee2d6d415b85acef810000000083816129e4576129e3614076565b5b0492506020810190505b662386f26fc100008310612a1d57662386f26fc100008381612a1357612a12614076565b5b0492506010810190505b6305f5e1008310612a46576305f5e1008381612a3c57612a3b614076565b5b0492506008810190505b6127108310612a6b576127108381612a6157612a60614076565b5b0492506004810190505b60648310612a8e5760648381612a8457612a83614076565b5b0492506002810190505b600a8310612a9d576001810190505b80915050919050565b6040518060a0016040528060008152602001600073ffffffffffffffffffffffffffffffffffffffff168152602001600073ffffffffffffffffffffffffffffffffffffffff168152602001600081526020016000151581525090565b6000819050919050565b612b1681612b03565b82525050565b600073ffffffffffffffffffffffffffffffffffffffff82169050919050565b6000612b4782612b1c565b9050919050565b612b5781612b3c565b82525050565b60008115159050919050565b612b7281612b5d565b82525050565b60a082016000820151612b8e6000850182612b0d565b506020820151612ba16020850182612b4e565b506040820151612bb46040850182612b4e565b506060820151612bc76060850182612b0d565b506080820151612bda6080850182612b69565b50505050565b600060a082019050612bf56000830184612b78565b92915050565b6000604051905090565b600080fd5b600080fd5b60007fffffffff0000000000000000000000000000000000000000000000000000000082169050919050565b612c4481612c0f565b8114612c4f57600080fd5b50565b600081359050612c6181612c3b565b92915050565b600060208284031215612c7d57612c7c612c05565b5b6000612c8b84828501612c52565b91505092915050565b612c9d81612b5d565b82525050565b6000602082019050612cb86000830184612c94565b92915050565b600081519050919050565b600082825260208201905092915050565b60005b83811015612cf8578082015181840152602081019050612cdd565b60008484015250505050565b6000601f19601f8301169050919050565b6000612d2082612cbe565b612d2a8185612cc9565b9350612d3a818560208601612cda565b612d4381612d04565b840191505092915050565b60006020820190508181036000830152612d688184612d15565b905092915050565b612d7981612b03565b8114612d8457600080fd5b50565b600081359050612d9681612d70565b92915050565b600060208284031215612db257612db1612c05565b5b6000612dc084828501612d87565b91505092915050565b6000612dd482612b1c565b9050919050565b612de481612dc9565b82525050565b6000602082019050612dff6000830184612ddb565b92915050565b612e0e81612dc9565b8114612e1957600080fd5b50565b600081359050612e2b81612e05565b92915050565b60008060408385031215612e4857612e47612c05565b5b6000612e5685828601612e1c565b9250506020612e6785828601612d87565b9150509250929050565b600080600060608486031215612e8a57612e89612c05565b5b6000612e9886828701612e1c565b9350506020612ea986828701612e1c565b9250506040612eba86828701612d87565b9150509250925092565b612ecd81612b03565b82525050565b612edc81612b3c565b82525050565b600060a082019050612ef76000830188612ec4565b612f046020830187612ed3565b612f116040830186612ed3565b612f1e6060830185612ec4565b612f2b6080830184612c94565b9695505050505050565b6000602082019050612f4a6000830184612ec4565b92915050565b600060208284031215612f6657612f65612c05565b5b6000612f7484828501612e1c565b91505092915050565b600080fd5b600080fd5b7f4e487b7100000000000000000000000000000000000000000000000000000000600052604160045260246000fd5b612fbf82612d04565b810181811067ffffffffffffffff82111715612fde57612fdd612f87565b5b80604052505050565b6000612ff1612bfb565b9050612ffd8282612fb6565b919050565b600067ffffffffffffffff82111561301d5761301c612f87565b5b61302682612d04565b9050602081019050919050565b82818337600083830152505050565b600061305561305084613002565b612fe7565b90508281526020810184848401111561307157613070612f82565b5b61307c848285613033565b509392505050565b600082601f83011261309957613098612f7d565b5b81356130a9848260208601613042565b91505092915050565b600080604083850312156130c9576130c8612c05565b5b600083013567ffffffffffffffff8111156130e7576130e6612c0a565b5b6130f385828601613084565b925050602061310485828601612d87565b9150509250929050565b61311781612b5d565b811461312257600080fd5b50565b6000813590506131348161310e565b92915050565b6000806040838503121561315157613150612c05565b5b600061315f85828601612e1c565b925050602061317085828601613125565b9150509250929050565b600067ffffffffffffffff82111561319557613194612f87565b5b61319e82612d04565b9050602081019050919050565b60006131be6131b98461317a565b612fe7565b9050828152602081018484840111156131da576131d9612f82565b5b6131e5848285613033565b509392505050565b600082601f83011261320257613201612f7d565b5b81356132128482602086016131ab565b91505092915050565b6000806000806080858703121561323557613234612c05565b5b600061324387828801612e1c565b945050602061325487828801612e1c565b935050604061326587828801612d87565b925050606085013567ffffffffffffffff81111561328657613285612c0a565b5b613292878288016131ed565b91505092959194509250565b600081519050919050565b600082825260208201905092915050565b6000819050602082019050919050565b60a0820160008201516132e06000850182612b0d565b5060208201516132f36020850182612b4e565b5060408201516133066040850182612b4e565b5060608201516133196060850182612b0d565b50608082015161332c6080850182612b69565b50505050565b600061333e83836132ca565b60a08301905092915050565b6000602082019050919050565b60006133628261329e565b61336c81856132a9565b9350613377836132ba565b8060005b838110156133a857815161338f8882613332565b975061339a8361334a565b92505060018101905061337b565b5085935050505092915050565b600060208201905081810360008301526133cf8184613357565b905092915050565b600080604083850312156133ee576133ed612c05565b5b60006133fc85828601612e1c565b925050602061340d85828601612e1c565b9150509250929050565b7f4e487b7100000000000000000000000000000000000000000000000000000000600052602260045260246000fd5b6000600282049050600182168061345e57607f821691505b60208210810361347157613470613417565b5b50919050565b7f4552433732313a20617070726f76616c20746f2063757272656e74206f776e6560008201527f7200000000000000000000000000000000000000000000000000000000000000602082015250565b60006134d3602183612cc9565b91506134de82613477565b604082019050919050565b60006020820190508181036000830152613502816134c6565b9050919050565b7f4552433732313a20617070726f76652063616c6c6572206973206e6f7420746f60008201527f6b656e206f776e6572206f7220617070726f76656420666f7220616c6c000000602082015250565b6000613565603d83612cc9565b915061357082613509565b604082019050919050565b6000602082019050818103600083015261359481613558565b9050919050565b7f4552433732313a2063616c6c6572206973206e6f7420746f6b656e206f776e6560008201527f72206f7220617070726f76656400000000000000000000000000000000000000602082015250565b60006135f7602d83612cc9565b91506136028261359b565b604082019050919050565b60006020820190508181036000830152613626816135ea565b9050919050565b7f4552433732313a20696e76616c696420746f6b656e2049440000000000000000600082015250565b6000613663601883612cc9565b915061366e8261362d565b602082019050919050565b6000602082019050818103600083015261369281613656565b9050919050565b7f4552433732313a2061646472657373207a65726f206973206e6f74206120766160008201527f6c6964206f776e65720000000000000000000000000000000000000000000000602082015250565b60006136f5602983612cc9565b915061370082613699565b604082019050919050565b60006020820190508181036000830152613724816136e8565b9050919050565b7f596f752073686f756c642073656e64206c697374206665650000000000000000600082015250565b6000613761601883612cc9565b915061376c8261372b565b602082019050919050565b6000602082019050818103600083015261379081613754565b9050919050565b7f5072696365206f66206e66742073686f756c64206265206d6f7265207468616e60008201527f207a65726f212100000000000000000000000000000000000000000000000000602082015250565b60006137f3602783612cc9565b91506137fe82613797565b604082019050919050565b60006020820190508181036000830152613822816137e6565b9050919050565b7f506c6561736520706179207468652061736b696e6720707269636520666f722060008201527f6e66740000000000000000000000000000000000000000000000000000000000602082015250565b6000613885602383612cc9565b915061389082613829565b604082019050919050565b600060208201905081810360008301526138b481613878565b9050919050565b7f596f7520617265206e6f7420746865206f776e65720000000000000000000000600082015250565b60006138f1601583612cc9565b91506138fc826138bb565b602082019050919050565b60006020820190508181036000830152613920816138e4565b9050919050565b600081905092915050565b600061393d82612cbe565b6139478185613927565b9350613957818560208601612cda565b80840191505092915050565b600061396f8285613932565b915061397b8284613932565b91508190509392505050565b7f4e487b7100000000000000000000000000000000000000000000000000000000600052601160045260246000fd5b60006139c182612b03565b91506139cc83612b03565b92508282019050808211156139e4576139e3613987565b5b92915050565b7f4e487b7100000000000000000000000000000000000000000000000000000000600052603260045260246000fd5b6000613a2482612b03565b91507fffffffffffffffffffffffffffffffffffffffffffffffffffffffffffffffff8203613a5657613a55613987565b5b600182019050919050565b7f4552433732313a207472616e736665722066726f6d20696e636f72726563742060008201527f6f776e6572000000000000000000000000000000000000000000000000000000602082015250565b6000613abd602583612cc9565b9150613ac882613a61565b604082019050919050565b60006020820190508181036000830152613aec81613ab0565b9050919050565b7f4552433732313a207472616e7366657220746f20746865207a65726f2061646460008201527f7265737300000000000000000000000000000000000000000000000000000000602082015250565b6000613b4f602483612cc9565b9150613b5a82613af3565b604082019050919050565b60006020820190508181036000830152613b7e81613b42565b9050919050565b7f45524337323155524953746f726167653a2055524920736574206f66206e6f6e60008201527f6578697374656e7420746f6b656e000000000000000000000000000000000000602082015250565b6000613be1602e83612cc9565b9150613bec82613b85565b604082019050919050565b60006020820190508181036000830152613c1081613bd4565b9050919050565b60008190508160005260206000209050919050565b60006020601f8301049050919050565b600082821b905092915050565b600060088302613c797fffffffffffffffffffffffffffffffffffffffffffffffffffffffffffffffff82613c3c565b613c838683613c3c565b95508019841693508086168417925050509392505050565b6000819050919050565b6000613cc0613cbb613cb684612b03565b613c9b565b612b03565b9050919050565b6000819050919050565b613cda83613ca5565b613cee613ce682613cc7565b848454613c49565b825550505050565b600090565b613d03613cf6565b613d0e818484613cd1565b505050565b5b81811015613d3257613d27600082613cfb565b600181019050613d14565b5050565b601f821115613d7757613d4881613c17565b613d5184613c2c565b81016020851015613d60578190505b613d74613d6c85613c2c565b830182613d13565b50505b505050565b600082821c905092915050565b6000613d9a60001984600802613d7c565b1980831691505092915050565b6000613db38383613d89565b9150826002028217905092915050565b613dcc82612cbe565b67ffffffffffffffff811115613de557613de4612f87565b5b613def8254613446565b613dfa828285613d36565b600060209050601f831160018114613e2d5760008415613e1b578287015190505b613e258582613da7565b865550613e8d565b601f198416613e3b86613c17565b60005b82811015613e6357848901518255600182019150602085019450602081019050613e3e565b86831015613e805784890151613e7c601f891682613d89565b8355505b6001600288020188555050505b505050505050565b7f4552433732313a20617070726f766520746f2063616c6c657200000000000000600082015250565b6000613ecb601983612cc9565b9150613ed682613e95565b602082019050919050565b60006020820190508181036000830152613efa81613ebe565b9050919050565b7f4552433732313a207472616e7366657220746f206e6f6e20455243373231526560008201527f63656976657220696d706c656d656e7465720000000000000000000000000000602082015250565b6000613f5d603283612cc9565b9150613f6882613f01565b604082019050919050565b60006020820190508181036000830152613f8c81613f50565b9050919050565b600081519050919050565b600082825260208201905092915050565b6000613fba82613f93565b613fc48185613f9e565b9350613fd4818560208601612cda565b613fdd81612d04565b840191505092915050565b6000608082019050613ffd6000830187612ddb565b61400a6020830186612ddb565b6140176040830185612ec4565b81810360608301526140298184613faf565b905095945050505050565b60008151905061404381612c3b565b92915050565b60006020828403121561405f5761405e612c05565b5b600061406d84828501614034565b91505092915050565b7f4e487b7100000000000000000000000000000000000000000000000000000000600052601260045260246000fd5b7f4552433732313a206d696e7420746f20746865207a65726f2061646472657373600082015250565b60006140db602083612cc9565b91506140e6826140a5565b602082019050919050565b6000602082019050818103600083015261410a816140ce565b9050919050565b7f4552433732313a20746f6b656e20616c7265616479206d696e74656400000000600082015250565b6000614147601c83612cc9565b915061415282614111565b602082019050919050565b600060208201905081810360008301526141768161413a565b905091905056fea26469706673582212203a6e712334a638f7ede68a40d6213dfacd6142f04abfcd75ec77cb1693648a1d64736f6c63430008120033",
  "linkReferences": {},
  "deployedLinkReferences": {}
}